:100000000C9463000C948B000C948B000C948B006C
:100010000C948B000C948B000C948B000C948B0034
:100020000C948B000C948B000C948B000C948B0024
:100030000C948B000C948B000C948B000C948B0014
:100040000C94B60E0C948B000C948B000C948B00CB
:100050000C948B000C948B000C948B000C948B00F4
:100060000C948B000C948B000000000024002700EF
:100070002A0000000000250028002B0000000000DE
:1000800023002600290004040404040404040202DA
:100090000202020203030303030301020408102007
:1000A0004080010204081020010204081020000012
:1000B0000007000201000003040600000000000029
:1000C0000000810E7A0E11241FBECFEFD8E0DEBFF4
:1000D000CDBF12E0A0E0B1E0EAE8F7E202C005908F
:1000E0000D92A231B107D9F713E0A2E1B2E001C04D
:1000F0001D92A138B107E1F710E0C4ECD0E004C0D4
:100100002297FE010E94B413C23CD107C9F70E9496
:10011000880E0C94F0010C940000CF93DF93BC0187
:100120008230910510F462E070E0A0917F03B091FD
:100130008003ED01E0E0F0E040E050E021C0888184
:1001400099818617970769F48A819B81309719F006
:100150009383828304C09093800380937F03FE0186
:1001600034C06817790738F44115510519F0841720
:10017000950708F4AC01FE018A819B819C01E9018D
:100180002097E9F641155105A9F1CA01861B970B85
:10019000049708F4BA01E0E0F0E02AC08D919C9148
:1001A000119784179507F9F46417750781F412966F
:1001B0008D919C911397309719F09383828304C09B
:1001C0009093800380937F03FD0132964CC0CA0157
:1001D000861B970BFD01E80FF91F6193719302973E
:1001E0008D939C9340C0FD01828193819C01D90134
:1001F0001097A1F680917D0390917E03892B41F4A5
:100200008091F8019091F90190937E0380937D0392
:100210004091FA015091FB014115510541F44DB750
:100220005EB78091F6019091F701481B590B209120
:100230007D0330917E03CA01821B930B86179707BB
:1002400080F0AB014E5F5F4F8417950750F0420F6F
:10025000531F50937E0340937D03F9016193719383
:1002600002C0E0E0F0E0CF01DF91CF910895CF939D
:10027000DF93009709F450C0EC0122971B821A8289
:10028000A0917F03B0918003109709F140E050E006
:10029000AC17BD0708F1BB83AA83FE012191319100
:1002A000E20FF31FAE17BF0779F48D919C91119760
:1002B000280F391F2E5F3F4F3983288312968D9167
:1002C0009C9113979B838A834115510571F4D093B8
:1002D0008003C0937F0320C012968D919C91139749
:1002E000AD01009711F0DC01D3CFFA01D383C283B3
:1002F00021913191E20FF31FCE17DF0769F4888156
:100300009981280F391F2E5F3F4FFA0131832083D7
:100310008A819B8193838283DF91CF910895A0E0AE
:10032000B0E0E5E9F1E00C948313EC01A880B9801A
:10033000CA80DB80A114B104C104D10441F484E279
:10034000A82E89EDB82E8BE5C82E87E0D82EC601E1
:10035000B5012DE133EF41E050E00E94601327EA40
:1003600031E440E050E00E940B137B018C01C60198
:10037000B5012DE133EF41E050E00E946013CA0166
:10038000B9012CEE34EF4FEF5FEF0E940B136E0DAF
:100390007F1D801F911F97FF04C0615070408040F7
:1003A0009048688379838A839B839B01AC015F7744
:1003B000B901CA01CDB7DEB7EAE00C949F130E94E1
:1003C0008F0108958CEF91E00E948F010895609352
:1003D000FC017093FD018093FE019093FF0108954D
:1003E000F8940C94B813FB01DC010D900020E9F7A0
:1003F000119701900D920020E1F70895FB01DC01B7
:1004000001900D920020E1F70895AEE0B0E0EBE03E
:10041000F2E00C9489130D891E8986E08C831A837F
:1004200009838FEF9FE79E838D839E01275E3F4F59
:10043000CE0101966F89788DA9010E9429022F8132
:100440003885020F131FF80110822E96E4E00C94F9
:10045000A513ABE0B0E0EFE2F2E00C947B133C01BB
:100460002B015A01FC0117821682838181FD03C092
:100470006FEF7FEFC6C19AE0892E1E010894211C00
:10048000311CF3012381F20123FD859123FF81912A
:100490002F01882309F4B2C1853239F423FD8591F7
:1004A00023FF81912F01853229F490E0B3010E944E
:1004B0001C04E7CF982FFF24EE249924FFE1FF15B9
:1004C000D0F09B3269F09C3228F4903259F093328C
:1004D00091F40EC09D3249F0903369F441E024C09C
:1004E00052E0F52A84E0F82A28C098E0F92A25C0CD
:1004F000E0E1FE2A22C0F7FC29C0892F80538A3010
:1005000070F4F6FE05C0989C902C1124980E15C02E
:10051000E89CE02C1124E80EF0E2FF2A0EC09E3287
:1005200029F4F6FC6BC140E4F42A07C09C3619F4A8
:1005300050E8F52A02C0983649F4F20123FD95915E
:1005400023FF91912F01992309F0B8CF892F85546A
:10055000833018F08052833038F444E050E0A40E29
:10056000B51E5FE359830FC0933631F0933779F0AE
:10057000933509F056C020C0F5018081898342E09F
:1005800050E0A40EB51E610101E010E012C0F501BB
:10059000C080D180F6FC03C06FEF7FEF02C0692DF1
:1005A00070E042E050E0A40EB51EC6010E941104A6
:1005B0008C015FE7F52214C0F501C080D180F6FC04
:1005C00003C06FEF7FEF02C0692D70E042E050E0A2
:1005D000A40EB51EC6010E9406048C0150E8F52A3F
:1005E000F3FE07C01AC080E290E0B3010E941C0431
:1005F000EA948E2D90E008171907A8F30EC0F601B3
:10060000F7FC8591F7FE81916F0190E0B3010E94A4
:100610001C04E110EA94015010400115110579F70E
:10062000EAC0943611F0993669F5F7FE08C0F50175
:10063000208131814281538184E090E00AC0F5013C
:10064000808191819C01442737FD4095542F82E0A1
:1006500090E0A80EB91E9FE6F92257FF09C05095F9
:100660004095309521953F4F4F4F5F4FE0E8FE2A70
:10067000CA01B901A1012AE030E00E944804D82E45
:10068000D21840C0953729F41F2D1F7E2AE030E094
:100690001DC01F2D197F9F3661F0903720F49835CB
:1006A00009F0ACC00FC0903739F0983709F0A6C0F8
:1006B00004C028E030E00AC0106114FD146020E19D
:1006C00030E004C014FD166020E132E017FF08C0DE
:1006D000F501608171818281938144E050E008C01E
:1006E000F50180819181BC0180E090E042E050E022
:1006F000A40EB51EA1010E944804D82ED2188FE77F
:10070000F82EF122F6FE0BC05EEFF522D91438F474
:10071000F4FE07C0F2FC05C08FEEF82202C01D2DCA
:1007200001C0192DF4FE0DC0FE01ED0DF11D8081FB
:10073000803319F499EEF92208C01F5FF2FE05C05C
:1007400003C08F2D867809F01F5F0F2DF3FC14C0B6
:10075000F0FE0FC01E1510F09D2C0BC09D2C9E0CA2
:10076000911A1E2D06C080E290E0B3010E941C0485
:100770001F5F1E15C0F304C01E1510F4E11A01C05E
:10078000EE2404FF0FC080E390E0B3010E941C043C
:1007900002FF1DC001FD03C088E790E00EC088E5A0
:1007A00090E00BC0802F867891F001FF02C08BE2B1
:1007B00001C080E2F7FC8DE290E0B3010E941C04CE
:1007C00006C080E390E0B3010E941C049A94D914FF
:1007D000C0F3DA94F101ED0DF11D808190E0B301D9
:1007E0000E941C04DD20A9F706C080E290E0B3015E
:1007F0000E941C04EA94EE20C1F743CEF301668107
:100800007781CB012B96E2E10C949713FC010590C4
:10081000615070400110D8F7809590958E0F9F1F02
:100820000895FC016150704001900110D8F7809547
:1008300090958E0F9F1F08950F931F93CF93DF9373
:100840008C01EB018B8181FF1BC082FF0DC02E81CB
:100850003F818C819D812817390764F4E881F981F3
:100860000193F983E88306C0E885F985802F09950F
:10087000892B31F48E819F8101969F838E8302C0E4
:100880000FEF1FEFC801DF91CF911F910F910895D6
:10089000FA01AA27283051F1203181F1E8946F93B1
:1008A0006E7F6E5F7F4F8F4F9F4FAF4FB1E03ED057
:1008B000B4E03CD0670F781F891F9A1FA11D680FF5
:1008C000791F8A1F911DA11D6A0F711D811D911D28
:1008D000A11D20D009F468943F912AE0269F11249D
:1008E0003019305D3193DEF6CF010895462F477001
:1008F000405D4193B3E00FD0C9F7F6CF462F4F705C
:10090000405D4A3318F0495D31FD4052419302D0B9
:10091000A9F7EACFB4E0A69597958795779567955F
:10092000BA95C9F700976105710508959B01AC015F
:100930000A2E06945795479537952795BA95C9F786
:10094000620F731F841F951FA01D0895FC01118263
:100950001082138212820895FC0171836083538395
:1009600042830895CF93DF93EC010E94FE0EAB010A
:10097000BC01CE0104960E94AB0D8BE00E945F107B
:10098000892B21F08A819B810E94FA058CE00E94CC
:100990005F10892B21F08A819B810E9418068EE0CE
:1009A0000E945F10892B21F08A819B810E945C0646
:1009B0008FE00E945F10892B21F08A819B810E9429
:1009C000840680E10E945F10892B21F08A819B813F
:1009D0000E94AB066CED70E080E090E00E940C0F8E
:1009E0008A819B810E94820CDF91CF9108950F93A1
:1009F0001F938C0104960E94060DF801118210824B
:100A0000138212821F910F91089508950F931F93DF
:100A10008C0181E090E0A0E0B0E0F8018083918358
:100A2000A283B38314821582168217828EE190E02E
:100A3000A0E0B0E080879187A287B38784879587FD
:100A4000A687B78760E070E080E090E02EE130E0BC
:100A500040E050E00E946013CA01F801208B318B06
:100A6000428B938BB901648B758B868B978B1F910F
:100A70000F9108950E9406050895FC01608171811F
:100A80008281938120E13EE040E050E00E946013CB
:100A9000C9010895FC0160817181828193812CE3F9
:100AA00030E040E050E00E946013CA01B9012CE33D
:100AB00030E040E050E00E946013CB010895FC015B
:100AC00060817181828193812CE330E040E050E0CD
:100AD0000E946013CB010895FC01848195810895E3
:100AE000FC01808591850895FC0184859585089594
:100AF000FC01608971898289938920E13EE040E0B0
:100B000050E00E946013C9010895FC016089718959
:100B1000828993892CE330E040E050E00E9460132A
:100B2000CA01B9012CE330E040E050E00E946013BC
:100B3000CB010895FC0160897189828993892CE336
:100B400030E040E050E00E946013CB010895FC01CA
:100B5000648975898689978920E13EE040E050E00C
:100B60000E946013C9010895FC0164897589868912
:100B700097892CE330E040E050E00E946013CA0106
:100B8000B9012CE330E040E050E00E946013CB015B
:100B90000895FC0164897589868997892CE330E082
:100BA00040E050E00E946013CB010895FC011182E7
:100BB000108213821282E85BFF4F81E090E0819304
:100BC000919382E090E08193919311821082089535
:100BD000FC011182108213821282E85BFF4F81E0D8
:100BE00090E08193919382E090E0819391931182C0
:100BF00010820895FC01E85BFF4F80819181833072
:100C0000910561F0843091051CF4029781F403C0D2
:100C100008976CF408C081E090E002C082E090E0A8
:100C200091838083089583E090E091838083089589
:100C3000FC01DC01A85BBF4F8D919C911197833023
:100C40009105A1F0843091051CF40197A1F503C032
:100C500008978CF52CC0E65BFF4F80819181823034
:100C6000910511F18330910531F51EC0E45BFF4F12
:100C7000808191818130910579F0823091051CF459
:100C8000892B39F008958230910549F0039799F442
:100C900009C084E090E008C085E090E005C086E0EF
:100CA00090E002C087E090E08D939C93089583E0EC
:100CB00090E08D939C930895FC01E85BFF4F2081A9
:100CC0003181E854F0402130310521F023303105E5
:100CD000D1F40EC0E65BFF4F808191810197918333
:100CE0008083029784F483E090E091838083089569
:100CF000E45BFF4F8081918101979183808397FF0F
:100D000002C0318320830895FC01E85BFF4F80819E
:100D10009181E854F0408130910519F00397D1F4A6
:100D20000EC0E65BFF4F80819181019691838083A5
:100D3000049784F082E090E0918380830895E45BDF
:100D4000FF4F80819181019691838083049714F0F5
:100D50001182108208950895EF92FF920F931F93CE
:100D6000DF93CF93CDB7DEB761970FB6F894DEBFB0
:100D70000FBECDBF7C01DE011196E0E0F1E081E124
:100D800001900D928150E1F7C70104968E010F5F2B
:100D90001F4FB8010E94FE01C7014596B8010E948D
:100DA000FE01C7018696B8010E94FE01C701C796E1
:100DB000B8010E94FE0161960FB6F894DEBF0FBE27
:100DC000CDBFCF91DF911F910F91FF90EF900895CC
:100DD0008F929F92AF92BF92CF92DF92EF92FF924B
:100DE0000F931F93CF93DF937C015A0164307105F9
:100DF00008F07CC0DA010D900020E9F71197A41BE0
:100E0000B50BA131B10524F0FA01108AA0E1B0E0E0
:100E100050E1C52ED12CCA1ADB0ACB0144E0880F61
:100E2000991F4A95E1F7860F971FF701E80FF91F01
:100E300014822130310519F12230310519F0232BAC
:100E400041F054C0EC012496CE0DDF1D00E010E00F
:100E500046C08C010C5F1F4F0E0D1F1DC801B50150
:100E60000E94FE01C0E0D0E006C0C80161E171E06F
:100E70000E94F3012196CC15DD05BCF337C0460175
:100E800095948794EC012496CE0DDF1D00E010E0D0
:100E900007C0CE0161E171E00E94F3010F5F1F4FB7
:100EA00008151905B4F3CE01B5010E94F3017601CE
:100EB000E818F90800E010E007C0CE0161E171E038
:100EC0000E94F3010F5F1F4F0E151F05B4F30EC0F4
:100ED000CE0161E171E00E94F3010F5F1F4F0C151D
:100EE0001D05B4F3CE01B5010E94F301DF91CF914E
:100EF0001F910F91FF90EF90DF90CF90BF90AF9038
:100F00009F908F900895FC019B016230710524F041
:100F100022503040405F5F4F80819181642F422F8B
:100F20000E94D0110895EF92FF920F931F938C01AE
:100F300079010E948307F80180819181B7010E94A5
:100F4000F8101F910F91FF90EF9008956031710597
:100F500080F49B01E4E0220F331FEA95E1F7260FAE
:100F6000371F2C5F3F4F280F391F40E050E00E9491
:100F700093070895AF92BF92CF92DF92EF92FF92C4
:100F80000F931F93DF93CF93CDB7DEB764970FB660
:100F9000F894DEBF0FBECDBF8C010E94AC067E016F
:100FA0000894E11CF11CC70163E171E00E94FE019D
:100FB000C80160E070E0A70121E030E00E94E8068F
:100FC000C70161E171E00E94FE01C80161E070E0CB
:100FD000A70121E030E00E94E806D80112968D9129
:100FE0009C9113970E9478055C01F801828193819E
:100FF0000E9485056C01D80112968D919C911397E2
:101000000E949A05EDB7FEB73A970FB6F894FEBF67
:101010000FBEEDBF3196ADB7BEB71296FC92EE9201
:10102000119721E231E033832283B582A482D782F3
:10103000C682918780870E940502EDB7FEB73A9677
:101040000FB6F894FEBF0FBEEDBFC80162E070E0BE
:10105000A70121E030E00E94E806C70160E371E0EB
:101060000E94FE01C80163E070E0A70121E030E0CA
:101070000E94E806C80160E070E00E94A607C8016F
:1010800061E070E00E94A607C80162E070E00E9483
:10109000A607C80163E070E00E94A60764960FB639
:1010A000F894DEBF0FBECDBFCF91DF911F910F919E
:1010B000FF90EF90DF90CF90BF90AF900895CF92C8
:1010C000DF92EF92FF920F931F93DF93CF93CDB7F1
:1010D000DEB764970FB6F894DEBF0FBECDBF7C01BC
:1010E0000E94AC068E010F5F1F4FC80169E371E0DB
:1010F0000E94FE01C70160E070E0A80121E030E03D
:101100000E94E806F1E1CF2EF1E0DF2EC801B60122
:101110000E94FE01C70161E070E0A80121E030E01B
:101120000E94E806D70112968D919C9113970E9418
:10113000740500D000D000D0EDB7FEB73196ADB742
:10114000BEB712961C930E93119724E431E03383BB
:101150002283958384830E940502EDB7FEB73696FD
:101160000FB6F894FEBF0FBEEDBFC70162E070E09E
:10117000A80121E030E00E94E806C801B6010E9403
:10118000FE01C70163E070E0A80121E030E00E94A9
:10119000E806C70160E070E00E94A607C70161E0B1
:1011A00070E00E94A607C70162E070E00E94A607F7
:1011B000C70163E070E00E94A60764960FB6F8943A
:1011C000DEBF0FBECDBFCF91DF911F910F91FF907A
:1011D000EF90DF90CF900895EF92FF920F931F93BF
:1011E000DF93CF93CDB7DEB764970FB6F894DEBF29
:1011F0000FBECDBF7C010E94AC068E010F5F1F4F5A
:10120000C8016DE471E00E94FE01C70160E070E07A
:10121000A80121E030E00E94E806C80161E171E028
:101220000E94FE01C70161E070E0A80121E030E00A
:101230000E94E806D70112968D919C9113970E9407
:10124000700500D000D000D0EDB7FEB73196ADB735
:10125000BEB712961C930E93119729E531E03383A4
:101260002283958384830E940502EDB7FEB73696EC
:101270000FB6F894FEBF0FBEEDBFC70162E070E08D
:10128000A80121E030E00E94E806C80163E671E0B1
:101290000E94FE01C70163E070E0A80121E030E098
:1012A0000E94E806C70160E070E00E94A607C7013F
:1012B00061E070E00E94A607C70162E070E00E9452
:1012C000A607C70163E070E00E94A60764960FB608
:1012D000F894DEBF0FBECDBFCF91DF911F910F916C
:1012E000FF90EF900895AF92BF92CF92DF92EF926E
:1012F000FF920F931F93DF93CF93CDB7DEB7649721
:101300000FB6F894DEBF0FBECDBF8C010E94AC06B5
:101310007E010894E11CF11CC70164E771E00E94A2
:10132000FE01C80160E070E0A70121E030E00E940A
:10133000E806C70161E171E00E94FE01C80161E0B9
:1013400070E0A70121E030E00E94E806D801129683
:101350008D919C9113970E943D055C01F80182815B
:1013600093810E944A056C01D80112968D919C913F
:1013700013970E945F05EDB7FEB73A970FB6F89442
:10138000FEBF0FBEEDBF3196ADB7BEB71296FC9251
:10139000EE92119721E231E033832283B582A48259
:1013A000D782C682918780870E940502EDB7FEB77B
:1013B0003A960FB6F894FEBF0FBEEDBFC80162E0CB
:1013C00070E0A70121E030E00E94E806C70160E379
:1013D00071E00E94FE01C80163E070E0A70121E016
:1013E00030E00E94E806C80160E070E00E94A607B5
:1013F000C80161E070E00E94A607C80162E070E0E9
:101400000E94A607C80163E070E00E94A6076496E8
:101410000FB6F894DEBF0FBECDBFCF91DF911F9105
:101420000F91FF90EF90DF90CF90BF90AF90089515
:10143000EF92FF920F931F93DF93CF93CDB7DEB759
:1014400064970FB6F894DEBF0FBECDBF7C010E943B
:10145000AC068E010F5F1F4FC80164E771E00E9468
:10146000FE01C70160E070E0A80121E030E00E94C9
:10147000E806C8016DE471E00E94FE01C70161E069
:1014800070E0A80121E030E00E94E806C80160E8B1
:1014900071E00E94FE01C70162E070E0A80121E056
:1014A00030E00E94E806C80163E171E00E94FE019D
:1014B000C70163E070E0A80121E030E00E94E80687
:1014C0008CE490E0E80EF91EF7014081518184EB35
:1014D0009FEFE80EF91ECA01B4E0880F991FBA9574
:1014E000E1F7840F951F04968E0D9F1D009741F123
:1014F000FC0120E030E09FEF8081803279F0FA013A
:10150000A4E0EE0FFF1FAA95E1F7E40FF51F739615
:10151000EE0DFF1D2FE030E09FEF07C091932F5F8E
:101520003F4F2031310541F7EACF8081803241F4CD
:1015300090832150304031978FEF2F3F3807A9F724
:10154000C70160E070E00E94A607C70161E070E09B
:101550000E94A607C70162E070E00E94A607C701CB
:1015600063E070E00E94A60764960FB6F894DEBFB1
:101570000FBECDBFCF91DF911F910F91FF90EF90E4
:101580000895AF92BF92CF92DF92EF92FF920F93A6
:101590001F93DF93CF93CDB7DEB764970FB6F89460
:1015A000DEBF0FBECDBF5C010E94AC06D501129616
:1015B0008D919C9113970E946C0500D000D000D0B3
:1015C000EDB7FEB731968E010F5F1F4FADB7BEB7B7
:1015D00012961C930E9311972CE831E033832283EB
:1015E000958384830E940502EDB7FEB736960FB649
:1015F000F894FEBF0FBEEDBFC50160E070E0A8012A
:1016000020E030E00E94E806D50112968D919C9171
:1016100013970E9478056C01F501828193810E94E5
:1016200085057C01D50112968D919C9113970E949E
:101630009A05EDB7FEB73A970FB6F894FEBF0FBE06
:10164000EDBF3196ADB7BEB712961C930E931197AE
:1016500026E931E033832283D582C482F782E68291
:10166000918780870E940502EDB7FEB73A960FB6C4
:10167000F894FEBF0FBEEDBFC50161E070E0A801A8
:1016800020E030E00E94E806D50112968D919C91F1
:1016900013970E94A7056C01F501828193810E9436
:1016A000B4057C01D50112968D919C9113970E94EF
:1016B000C905EDB7FEB73A970FB6F894FEBF0FBE57
:1016C000EDBF3196ADB7BEB712961C930E9311972E
:1016D0002DEA31E033832283D582C482F782E68209
:1016E000918780870E940502EDB7FEB73A960FB644
:1016F000F894FEBF0FBEEDBFC50162E070E0A80127
:1017000020E030E00E94E806C80164EC71E00E942D
:10171000FE01C50163E070E0A80121E030E00E9415
:10172000E806C501C79601F1FC0120E030E09FEF1B
:101730008081803239F0F501EA5BFF4F2FE030E025
:101740009FEF07C091932F5F3F4F2031310581F705
:10175000F2CF8081803241F4908321503040319724
:101760008FEF2F3F3807A9F7C50160E070E00E94B6
:10177000A607C50161E070E00E94A607C50162E00E
:1017800070E00E94A607C50163E070E00E94A60712
:1017900064960FB6F894DEBF0FBECDBFCF91DF9138
:1017A0001F910F91FF90EF90DF90CF90BF90AF907F
:1017B0000895EF92FF920F931F93DF93CF93CDB7CE
:1017C000DEB764970FB6F894DEBF0FBECDBF7C01C5
:1017D0000E94AC068E010F5F1F4FC80163ED71E0E0
:1017E0000E94FE01C70160E070E0A80121E030E046
:1017F0000E94E806C80161E171E00E94FE01C70194
:1018000061E070E0A80120E030E00E94E806C80135
:1018100062EE71E00E94FE01C70162E070E0A80183
:1018200021E030E00E94E806C8016DEE71E00E9400
:10183000FE01C70163E070E0A80121E030E00E94F2
:10184000E8068AE490E0E80EF91EF7014081518134
:1018500086EB9FEFE80EF91ECA0104E0880F991F7E
:101860000A95E1F7840F951F04968E0D9F1D009732
:1018700041F1FC0120E030E09FEF8081803279F07F
:10188000FA0114E0EE0FFF1F1A95E1F7E40FF51FC0
:101890007396EE0DFF1D2FE030E09FEF07C0919390
:1018A0002F5F3F4F2031310541F7EACF80818032F1
:1018B00041F490832150304031978FEF2F3F38070C
:1018C000A9F7C70160E070E00E94A607C70161E0C8
:1018D00070E00E94A607C70162E070E00E94A607C0
:1018E000C70163E070E00E94A60764960FB6F89403
:1018F000DEBF0FBECDBFCF91DF911F910F91FF9043
:10190000EF900895FC01E85BFF4F80819181E854DE
:10191000F0408430910509F1853091054CF4823016
:10192000910599F083309105A4F4019729F509C038
:1019300086309105D1F0863091059CF00797E1F44F
:1019400018C0CF010E94D90B0895CF010E94C10A8F
:101950000895CF010E94180A0895CF010E947309CB
:101960000895CF010E94EC080895CF010E945F08FE
:101970000895CF010E94BA0708956F927F928F92C7
:10198000AF92CF92EF92FF920F931F933C01DC0135
:1019900013967C936E93129785E190E00E94031159
:1019A000182FF92E00D00F92EDB7FEB7319688E0D0
:1019B000ADB7BEB711968C9389E081838AE08283AC
:1019C000812F60E041E022E003E0E4E0EE2E75E0EC
:1019D000C72E56E0A52E37E0832E0E94BD12F301DC
:1019E0001083F1820F900F900F90812F9F2D60E157
:1019F00044E020E00E9407121F910F91FF90EF90AA
:101A0000CF90AF908F907F906F900895FC011582DA
:101A1000148211821082138212820895FF920F9312
:101A20001F93DF93CF93CDB7DEB766970FB6F894C9
:101A3000DEBF0FBECDBF8C01462FF72EFC012081EB
:101A40003181828193818217930719F42FEF3FEF41
:101A50002FC086E190E0289FF001299FF00D389F6C
:101A6000F00D1124E00FF11FDE011196369686E18C
:101A700001900D928150E1F7C90101966BE070E091
:101A80000E942A13F80191838083842F9F2D9C014B
:101A9000D901FE01319686E101900D928150E1F766
:101AA000F8018481958101979583848320E030E05B
:101AB000C90166960FB6F894DEBF0FBECDBFCF91B9
:101AC000DF911F910F91FF900895EF92FF920F9376
:101AD0001F93DF93CF93CDB7DEB78C01FC01E2807B
:101AE000F380C70101966BE070E00E942A13208109
:101AF00031818217930719F42FEF3FEF24C086E15D
:101B000090E0E89EF001E99EF00DF89EF00D1124A2
:101B1000E00FF11F3696DE01199686E10D900192D5
:101B20008150E1F7F8018281938101966BE070E0CA
:101B30000E942A13938382838481958101969583E1
:101B4000848320E030E0C901CF91DF911F910F9194
:101B5000FF90EF9008956F927F928F929F92AF9235
:101B6000BF92CF92DF92EF92FF920F931F93DF937A
:101B7000CF93CDB7DEB766970FB6F894DEBF0FBE32
:101B8000CDBF5C017A018B01FC0184819581892B99
:101B900021F4CC24CA94DC2C02C0CC24DD2488247B
:101BA00099243E010894611C711C62C0C501B301F7
:101BB0000E940E0D892B21F0CC24CA94DC2C5FC02E
:101BC0008B819C81AD81BE81E816F9060A071B074F
:101BD00080F14B895C892D893E89E981FA81C801B0
:101BE000B7010995892B19F40894C11CD11C8F8168
:101BF0009885A985BA850097A105B105B1F18E0D2B
:101C00009F1DA01FB11F8B839C83AD83BE838DB7A7
:101C10009EB746970FB6F8949EBF0FBE8DBFADB767
:101C2000BEB71196F30186E101900D928150E1F764
:101C300011C08DB79EB746970FB6F8949EBF0FBEE2
:101C40008DBFADB7BEB71196F30186E101900D923D
:101C50008150E1F7C5010E94650DEDB7FEB776969C
:101C60000FB6F894FEBF0FBEEDBF0894811C911C07
:101C7000F501848195818816990608F497CFC601ED
:101C800066960FB6F894DEBF0FBECDBFCF91DF9141
:101C90001F910F91FF90EF90DF90CF90BF90AF908A
:101CA0009F908F907F906F9008958130910581F47F
:101CB0006F5F7F4FF1F482E192E00E943A058AE281
:101CC00092E00E94D60588E792E00E94F70408950A
:101CD000892B79F46F5F7F4F61F488E792E00E946F
:101CE000A6048AE292E00E94E80582E192E00E9466
:101CF0000505089580E090E06FEF7FEF0E94550E9C
:101D0000089581E090E06FEF7FEF0E94550E0895F7
:101D10000E946F0F8BE060E00E94CC0F8CE060E0CF
:101D20000E94CC0F8EE060E00E94CC0F8FE060E05C
:101D30000E94CC0F85E00E94AA0F0E94FB1082E156
:101D400092E00E9406058AE292E062E172E00E945F
:101D5000BD0C88E792E062E172E04AE252E00E9444
:101D6000AC0488E792E00E94B204FBCF1F920F926E
:101D70000FB60F9211242F933F938F939F93AF939E
:101D8000BF938091780390917903A0917A03B091E9
:101D90007B0330917C030196A11DB11D232F2D5F84
:101DA0002D3720F02D570196A11DB11D20937C03E6
:101DB0008093780390937903A0937A03B0937B0385
:101DC0008091740390917503A0917603B09177038D
:101DD0000196A11DB11D8093740390937503A09388
:101DE0007603B0937703BF91AF919F918F913F910D
:101DF0002F910F900FBE0F901F9018958FB7F894EA
:101E0000209178033091790340917A0350917B03BC
:101E10008FBFB901CA0108959B01AC017FB7F89447
:101E20008091740390917503A0917603B09177032C
:101E300066B5A89B05C06F3F19F00196A11DB11DA5
:101E40007FBFBA2FA92F982F8827860F911DA11D1C
:101E5000B11D62E0880F991FAA1FBB1F6A95D1F7B9
:101E6000BC012DC0FFB7F894809174039091750365
:101E7000A0917603B0917703E6B5A89B05C0EF3F2C
:101E800019F00196A11DB11DFFBFBA2FA92F982FE0
:101E900088278E0F911DA11DB11DE2E0880F991FAB
:101EA000AA1FBB1FEA95D1F7861B970B885E93404C
:101EB000C8F2215030404040504068517C4F2115BD
:101EC00031054105510571F60895019739F0880FE4
:101ED000991F880F991F02970197F1F70895789439
:101EE00084B5826084BD84B5816084BD85B582601F
:101EF00085BD85B5816085BDEEE6F0E080818160BD
:101F00008083E1E8F0E010828081826080838081BC
:101F100081608083E0E8F0E0808181608083E1EB94
:101F2000F0E0808184608083E0EBF0E0808181607C
:101F30008083EAE7F0E08081846080838081826032
:101F4000808380818160808380818068808310921B
:101F5000C1000895982F8E3008F09E5097708091A0
:101F600000028295880F880F807C892B80937C00EB
:101F700080917A00806480937A0080917A0086FD57
:101F8000FCCF2091780040917900942F80E030E0E0
:101F9000282B392BC9010895CF93DF93482F50E0A8
:101FA000CA0186569F4FFC0134914A575F4FFA0190
:101FB0008491882369F190E0880F991FFC01E8590A
:101FC000FF4FA591B491FC01EE58FF4FC591D491FC
:101FD000662351F42FB7F8948C91932F9095892311
:101FE0008C93888189230BC0623061F42FB7F894F9
:101FF0008C91932F909589238C938881832B888350
:102000002FBF06C09FB7F8948C91832B8C939FBFF2
:10201000DF91CF910895482F50E0CA0182559F4F1C
:10202000FC012491CA0186569F4FFC0194914A57A6
:102030005F4FFA013491332309F440C0222351F158
:10204000233071F0243028F42130A1F0223011F532
:1020500014C02630B1F02730C1F02430D9F404C0C8
:10206000809180008F7703C0809180008F7D809366
:10207000800010C084B58F7702C084B58F7D84BD89
:1020800009C08091B0008F7703C08091B0008F7D30
:102090008093B000E32FF0E0EE0FFF1FEE58FF4FEC
:1020A000A591B4912FB7F894662321F48C91909563
:1020B000892302C08C91892B8C932FBF0895682FA0
:1020C00070E0CB0182559F4FFC012491CB018656D5
:1020D0009F4FFC0144916A577F4FFB0194919923D4
:1020E00019F420E030E03CC0222351F1233071F09C
:1020F000243028F42130A1F0223011F514C026300C
:10210000B1F02730C1F02430D9F404C080918000B0
:102110008F7703C0809180008F7D8093800010C0F6
:1021200084B58F7702C084B58F7D84BD09C080914E
:10213000B0008F7703C08091B0008F7D8093B00096
:10214000892F90E0880F991F84589F4FFC01A5911B
:10215000B4918C9120E030E0842311F021E030E054
:10216000C9010895CF92DF92EF92FF920F931F93D0
:10217000CF93DF937C016B018A01C0E0D0E00FC0F8
:10218000D6016D916D01D701ED91FC910190F08127
:10219000E02DC7010995C80FD91F01501040011546
:1021A000110571F7CE01DF91CF911F910F91FF9033
:1021B000EF90DF90CF900895CF93DF93EC016115FE
:1021C000710519F420E030E00FC0DB010D90002014
:1021D000E9F71197A61BB70BE881F9810280F3811B
:1021E000E02DAD0109959C01C901DF91CF910895C2
:1021F0000E94DC100895009729F0BC0180E090E077
:102200000E94E70108950E948D0008950F931F9387
:102210008C01FC01868160E00E940B1081E090E05F
:102220000E94650FF801868161E00E940B1081E039
:1022300090E00E94650FF801868160E00E940B101B
:1022400084E690E00E94650F1F910F910895CF9250
:10225000DF92EF92FF920F931F93CF93DF93D82ECD
:10226000C92E282F392FC9018C01C0E0D0E0E62EFD
:10227000FF24F801878161E00E94CC0FB7010C2E8A
:1022800002C0759567950A94E2F76170F80187813D
:102290000E940B1021960F5F1F4FC830D10549F7E0
:1022A0008D2D9C2D0E940611DF91CF911F910F91D2
:1022B000FF90EF90DF90CF900895CF92DF92EF9252
:1022C000FF920F931F93CF93DF93D82EC92E282F01
:1022D000392FC9018C01C0E0D0E0E62EFF24F801BF
:1022E000878161E00E94CC0FB7010C2E02C075956A
:1022F00067950A94E2F76170F80187810E940B10DC
:1023000021960F5F1F4FC430D10549F78D2D9C2DAD
:102310000E940611DF91CF911F910F91FF90EF90D6
:10232000DF90CF9008951F93CF93DF93EC01162F8A
:102330008C81642F0E940B108D818F3F19F060E01B
:102340000E940B108F8584FF05C0CE01612F0E9473
:1023500027110EC0612F70E084E0759567958A950E
:10236000E1F7CE010E945D11CE01612F0E945D1147
:10237000DF91CF911F91089541E00E94931181E078
:1023800090E0089540E00E9493110895FC01608957
:10239000862F8460808B6C60CF010E94C2110895EB
:1023A000DF93CF93CDB7DEB728970FB6F894DEBF93
:1023B0000FBECDBF9C01FE013196A9E0B2E088E0DE
:1023C0000D9001928150E1F7F9018389481710F0CF
:1023D000482F4150E42FF0E0EE0FFF1FEC0FFD1FE0
:1023E0008181680F6068C9010E94C21128960FB6EA
:1023F000F894DEBF0FBECDBFCF91DF91089561E0AD
:102400000E94C21180ED97E00E94650F0895CF935E
:10241000DF93EC01423018F08F8588608F874B8BFB
:102420001C8A222329F0413019F48F8584608F871C
:1024300080E593EC0E94650F8C8160E00E940B1098
:102440008E8160E00E940B108D818F3F19F060E05B
:102450000E940B106F8564FD1DC0CE0163E00E94D9
:102460005D1184E991E10E94650FCE0163E00E9455
:102470005D1184E991E10E94650FCE0163E00E9445
:102480005D1186E990E00E94650FCE0162E00E9436
:102490005D1116C06062CE010E94C21184E991E113
:1024A0000E94650F6F856062CE010E94C21186E9AD
:1024B00090E00E94650F6F856062CE010E94C2119C
:1024C0006F856062CE010E94C21184E0888BCE01CC
:1024D0000E94C611CE010E94FF1182E0898BCE01BD
:1024E00066E00E94C211DF91CF9108956F927F92B2
:1024F0008F92AF92CF92EF920F931F93DF93CF9370
:10250000CDB7DEB73C01162F842FF301448325831A
:102510000683E782C086A18682869D8593879E85F5
:1025200094879F8595879889968761E00E94CC0F54
:10253000F30185818F3F19F061E00E94CC0FF30118
:10254000868161E00E94CC0F112319F0F3011786F8
:1025500003C080E1F3018787C30160E141E020E02F
:102560000E940712CF91DF911F910F91EF90CF90B2
:10257000AF908F907F906F9008956F927F928F921F
:10258000AF92BF92CF92DF92EF92FF920F931F9381
:10259000DF93CF93CDB7DEB7DC01362F542F722FE8
:1025A000102FFE2CDC2CBA2C13961C921E92129724
:1025B00085E092E011969C938E9300D000D06DB68A
:1025C0007EB60894611C711CEDB7FEB781828889C4
:1025D000F3018183898982838A898383CD0160E0C5
:1025E000432F252F072FE12ECF2CAD2C8B2C0E94B3
:1025F00076120F900F900F900F90CF91DF911F9157
:102600000F91FF90EF90DF90CF90BF90AF908F90A1
:102610007F906F900895629FD001739FF001829F19
:10262000E00DF11D649FE00DF11D929FF00D839F61
:10263000F00D749FF00D659FF00D9927729FB00DFE
:10264000E11DF91F639FB00DE11DF91FBD01CF0111
:1026500011240895AA1BBB1B51E107C0AA1FBB1F71
:10266000A617B70710F0A61BB70B881F991F5A951E
:10267000A9F780959095BC01CD010895A1E21A2E8D
:10268000AA1BBB1BFD010DC0AA1FBB1FEE1FFF1F16
:10269000A217B307E407F50720F0A21BB30BE40B66
:1026A000F50B661F771F881F991F1A9469F76095AD
:1026B0007095809590959B01AC01BD01CF01089567
:1026C00097FB092E05260ED057FD04D0D7DF0AD080
:1026D000001C38F450954095309521953F4F4F4F51
:1026E0005F4F0895F6F790958095709561957F4FAF
:1026F0008F4F9F4F08952F923F924F925F926F920C
:102700007F928F929F92AF92BF92CF92DF92EF9281
:10271000FF920F931F93CF93DF93CDB7DEB7CA1B02
:10272000DB0B0FB6F894DEBF0FBECDBF09942A882D
:10273000398848885F846E847D848C849B84AA84D5
:10274000B984C884DF80EE80FD800C811B81AA8162
:10275000B981CE0FD11D0FB6F894DEBF0FBECDBF2D
:10276000ED010895EE0FFF1F0590F491E02D0994FF
:1027700010E0C4ECD0E004C0FE010E94B413229625
:0A278000C63CD107C9F7F894FFCF5B
:10278A00202020202020202020202020202020203F
:10279A00002000506C61796261636B2054696D6539
:1027AA0000253032643A253032643A2530326400EA
:1027BA0068683A6D6D3A7373004672616D652052AE
:1027CA006174650025303264206670730046726158
:1027DA006D6520436F756E74004D61783A2025301F
:1027EA003564002830203D206E6F206D6178696D58
:1027FA00756D29004672616D652044656C617900CA
:10280A004672616D65732052617465004672616D2E
:10281A00653A20256400506C6179546D3A20253060
:10282A0032643A253032643A2530326400526561A6
:10283A006C546D3A20253032643A253032643A2598
:10284A0030326400436C69636B20746F2053746187
:10285A00727400496E74657276616C6F6D65746529
:10286A0072004D61696E2050616E656C005365742B
:10287A0074696E6773002000810300000100000084
:10288A000100000000BC11B2100000400014005406
:02289A0000003C
:00000001FF
